:100000001CC040C03FC03EC03DC03CC03BC03AC029
:1000100039C038C037C036C035C034C033C032C034
:1000200031C030C02FC01112131415160A0B0C0D5D
:100030000E0F000102030405200111241FBECFE5AD
:10004000D4E0DEBFCDBF10E0A0E6B0E0EAE3F8E028
:1000500002C005900D92A037B107D9F720E0A0E7C4
:10006000B0E001C01D92A838B207E1F710E0CDE181
:10007000D0E003C02197FE01D8D3CC31D107D1F70E
:1000800002D0D9C3BDCF11BA80EF82BB8FEF84BB42
:10009000AB9A87E689B986E880BD88E98AB981E7A5
:1000A00090E03BD263E781E790E078D163E081E7BD
:1000B00090E09CD162E081E790E02FD14AE650E0E9
:1000C00061E081E790E0A9D181E790E0FDD12FEFD9
:1000D00081E19AE7215080409040E1F700C00000A4
:1000E00081E790E0E5D26AE670E081E790E013D323
:1000F00041E063E670E081E790E094D344E650E0AD
:1001000061E081E790E089D181E790E0DDD12FEFD8
:1001100081E19AE7215080409040E1F700C0000063
:1001200081E790E06AD2882309F44BC081E790E030
:1001300064D2882339F041E060E770E081E790E025
:10014000ACD2F4CF80917000823411F52FEF84E3AC
:100150009CE0215080409040E1F700C0000081E722
:1001600090E0A6D26AE670E081E790E0D4D241E068
:1001700061E670E081E790E055D344E650E061E04D
:1001800081E790E04AD181E790E09ED1AB9819C019
:10019000853359F42FEF84E39CE021508040904058
:1001A000E1F700C00000AB9A0CC08F3451F42FEF80
:1001B00084E39CE0215080409040E1F700C00000C3
:1001C000A99887991AC0879BFECF81E790E070D2EB
:1001D0006AE670E081E790E09ED241E062E670E07E
:1001E00081E790E01FD344E650E061E081E790E0D2
:1001F00014D181E790E068D193CF869904C0869BA3
:10020000FECFA9988DCF85998BCF859BFECF81E7B7
:1002100090E04ED26AE670E081E790E07CD241E067
:1002200060E670E081E790E0FDD244E650E061E0F6
:1002300081E790E0F2D081E790E046D1A99A70CFB3
:1002400041E050E062E070E081E790E010D0089576
:1002500087B38E6287BBC2988DB180658DB9709A65
:10026000C29A08958FB9779BFECF8FB10895FC0194
:10027000108280E28183128285E0808772876187A5
:100280005487438785E090E0A0E0B0E08787908BBB
:10029000A18BB28B13820895DF92EF92FF920F939E
:1002A0001F93CF93DF937A01C22FC198862F8F714E
:1002B0008062D8DFD82E8FEF8C0FCC2361F0E7015E
:1002C000082F10E00F5F1F4F0E0D1F1D8991CADF11
:1002D000C017D107D9F7C19A8D2DDF91CF911F910A
:1002E0000F91FF90EF90DF900895CF93DF93D42F7D
:1002F000C198862F8F718062B5DFC82F8D2FB2DF36
:10030000C19A8C2FDF91CF910895C198862F8F715C
:10031000A9DF8FEFA7DFC19A08950F931F93CF93A3
:10032000DF93EC01062F66E0F0DF182F177D023017
:1003300051F410628BE990E0A0E0B0E08B8B9C8BD5
:10034000AD8BBE8B14C0013049F085E590E0A0E094
:10035000B0E08B8B9C8BAD8BBE8B09C0186081E4A9
:1003600090E0A0E0B0E08B8B9C8BAD8BBE8B412FDF
:1003700066E0CE01BADF66E0CE01C7DF91E0181378
:1003800090E0892FDF91CF911F910F910895C1982F
:1003900080E568DF83E766DFC19A08956D3710F462
:1003A000462F01C04DE765E0A0DF0895862FC19874
:1003B00059DFC19A089562EEF9DF089561EEF6DF24
:1003C0000895CF93DF93EC0160E09FDF81FD0BC0C8
:1003D000482F426060E0CE0188DF87EA91E601970E
:1003E000F1F700C00000DF91CF9108950F931F93A4
:1003F000CF938C01C62F66E088DF887FC43018F465
:10040000CC0FCF5F01C0C7E04C2F482B66E0C8017E
:100410006CDFCF911F910F9108950F931F93CF938E
:10042000DF93673078F5C62F8C01623048F4E62FF1
:10043000F0E0E45DFF4F6491FC0120852DDF07C0F3
:10044000E62FF0E0E45DFF4F649121E025DFD0E08E
:10045000FE01EA5DFF4F6491F8014181C80145DF6B
:1004600062E0C80152DFFE01EE5CFF4FE49141E023
:1004700050E002C0440F551FEA95E2F7482B62E0B6
:10048000C80133DFDF91CF911F910F9108950F9332
:100490001F93CF938C01C62F62E037DFEC2FF0E083
:1004A000EE5CFF4FE49121E030E002C0220F331FE9
:1004B000EA95E2F72095422F482362E0C80115DF54
:1004C000CF911F910F910895CF93DF93EC0179DFC6
:1004D00060E0CE011ADF482F416060E0CE0105DF09
:1004E00040E767E0CE0101DFC29A8B81882341F0AB
:1004F0002885AE014D5F5F4F6AE0CE01CDDE03C0BF
:1005000060E0CE01C4DF6DE1CE01FFDE81FF02C0FD
:10051000CE0154DFDF91CF9108951F93CF93DF93E6
:10052000EC0196DEC19A2FE988E696E021508040E2
:100530009040E1F700C000004CE060E0CE01D5DE65
:100540004FE564E0CE01D1DE62E0CE01E6DE882335
:1005500011F081E0888366E0CE01D7DE182F60E0DD
:10056000CE01DBDECE0113DF40E06DE1CE01BDDE6A
:1005700040E06CE1CE01B9DE1A8240E767E0CE01CF
:10058000B4DE6CE4CE010ADFCE0115DFCE0116DF4A
:10059000CE0117DF60E0CE01B8DE482F4E7F60E06D
:1005A000CE01A3DE115081E01E3F08F080E0DF9114
:1005B000CF911F9108956FEFF9DE08950F931F9368
:1005C000CF93DF93EC018B0167E19FDE80FD0DC0CF
:1005D0000115110561F0CE01EEDF90E0959587954C
:1005E0008770F801808381E003C080E001C081E072
:1005F000DF91CF911F910F91089560E070E0DEDFF1
:100600000895BF92CF92DF92EF92FF920F931F93C4
:10061000CF93DF936B01FC01C1811C2F4C1708F4B1
:10062000142FFC018281811123C00C2F011BC19862
:1006300081E618DEB82EEE24EA94E10E111104C012
:10064000011110C01EC000E0E601F12CFFEFEF1A0F
:10065000FF0AEC0CFD1C8FEF05DE8993EC16FD06FE
:10066000D1F7EECFC02F8FEFFDDDC150E1F709C00C
:10067000C19881E6F7DDB82EEE24EA94E10E11115F
:10068000E2CFC19A8B2DDF91CF911F910F91FF90F7
:10069000EF90DF90CF90BF900895CF93DF93EC0160
:1006A000B0DF40E767E0CE0120DEDF91CF91089513
:1006B000CF93DF93EC01C2988FE493EC0197F1F7AD
:1006C00000C000006DE1CE0120DE81FF08C08FE494
:1006D00093EC0197F1F700C00000CE016FDE60E0FF
:1006E000CE0113DE482F4E7F60E0CE01FEDD62E0DA
:1006F000CE010BDEE2E3F0E0E49141E050E002C025
:10070000440F551FEA95E2F7482B62E0CE01EDDD7C
:10071000DF91CF9108950F931F93CF93DF93EC0157
:100720008B012885AB016AE0B7DD2885A80160E16F
:10073000CE01B2DD498161E1CE01D7DDDF91CF91FC
:100740001F910F910895BF92CF92DF92EF92FF9287
:100750000F931F93CF93DF93FC016B01822FC18115
:100760001C2F4C1708F4142F9281911121C00C2FCB
:10077000011BC19877DDB82E8FEF810F111104C0D6
:10078000011110C01CC000E0E601E82EF12C8FEF33
:10079000E81AF80AEC0CFD1C899164DDEC16FD06E4
:1007A000D9F7EECFC02F80E05DDDC150E1F707C083
:1007B000C19858DDB82E8FEF810F1111E4CFC19A87
:1007C0008B2DDF91CF911F910F91FF90EF90DF90D4
:1007D000CF90BF9008950F93211102C020EA01C06D
:1007E00020EBB1DF0111C29A0F9108950F93CF93BF
:1007F000DF93EC0101E0EFDF8FE493EC0197F1F779
:1008000000C00000C29840E767E0CE016EDD84FFC3
:1008100004C0CE01D3DD80E001C081E0DF91CF9143
:100820000F91089520E0E2DF0895EE0FFF1F05907D
:0A083000F491E02D0994F894FFCF35
:10083A004D33344B3200000000003000000000004D
:00000001FF
